:400000000010002011000000B5030000B503000008B500F081FA00F0CFF90000F7B572B680220021D200554800F0EDFF802200215348D20000F0E7FF0023191C514C1859E1
:400040001034C2B20192071CFF2297434A00A4180022019ED5B2AE4209D05500665D6519B446BC446D78664635700132F1E7C0B204330918102BE1D1434BC02292041A60F8
:40008000424B99221A60424A00231360414A80211160414AC9031160404A40211160404AC021490311603F4A312113603E4B02221A603E4B802019603D4B3E491A60992317
:4000C0001B040B603C49000608603C493C200B603B4B8021890519603A493B4B19603B4B19780A431A703A4A117881431420014311701A7816210A431A70364A8023116893
:40010000DB020B431360344B141C1878334BC0B21978334BC9B21A78172A05D9314A58789978033B9342F6D12F4B192218602F4B052019602E4B1A6000F05EFD2D4B052061
:400140001A782D4BD2B21A6000F09EFE22682B4B134023602A4A2B4B1A602B4B10221A602A4B20221A602A4B802212061A60294A294B1A60294A2A4B1A60F7BD00300F40BF
:4001800000400F402410000004000140100001400C000140000004400800044000010440080104400803044000040440080404401804044000500F4004500F4010500F403F
:4001C00018500F40100001002001054000700F4001700F4000010B40CCF1FF0FCDF1FF0FC9F1FF0FBDF1FF0F1CFF0B4020FF0B402CFF0B40E5F1FF0F28FF0B40FFFFFBFF57
:400200000600008004010B40080202402002024008010B401000008000000240AF0400804000024010B5064C2378002B07D1054B002B02D0044800E000BF0123237010BDEC
:40024000F0000020000000002010000008B5084B002B03D00748084900E000BF07480368002B03D0064B002B00D0984708BDC0460000000020100000F4000020D00000200F
:400280000000000010B562B600F0ACFC00280ED16524012000F0E2FD00F0A4FC002806D1013CE4B2002CF4D1034B40221A6000F08BFC00F0DBFAFEE7C000002008B500F01E
:4002C00015FB00F04DFB00F0B5FB08BD70B5054B0D1C161C0024C9B21C8000F09FFB3580201C70BD0C010020F0B50A275F4387B003900591151C00262D4CBE4219DA00F0E6
:400300001DFB80B220802388002B0CD00220268800F0A4FD00F012FB80B220802388B6B2B342F3D807E00120013600F097FDB6B2E2E7052600E0002600272F802388002B4D
:4003400033D023889BB2019301992B885A18059992B22A808A4221D2019ABB189BB2029302998F4209D07B1C9BB20493039BDF1900F0CAFA3870049FF2E772B62388019AF8
:400380009B1A9BB2238062B6039A5318013B1B78172B08D0052000F061FD04E02B8000F0DFFA052601E0029FC8E7301C07B0F0BD0C010020FEE7000070B51048104B013895
:4003C000421C15D01E685C689D680022A118AA4203D0B158A1500432F8E7DA680D1C4C1B944202D0002410C1F9E710330138E7E700F0DAFDFFF746FFFEE7C046010000003B
:400400007410000008B500239A00032B02D80D49895800E00C490D4801338150302BF3D1FFF7FCFD0A4B00221A600A4B1A68002A00D11A608023DB051A6801210A431A60B7
:4004400008BDC04600000000B503000000000020C8000020C0000020004770B5051C0E1C141C002802D0002000F0EAFC0020002C05D0013CAA19125D8318D8B2F7E770BD7A
:40048000013808B509282AD8C901494200F078FD0507090B0D0F1614181B154B08E0154B12E0154B0DE0154B0EE0154B00E0154BC9180878C0B21AE0134B02E0134B00E0A0
:4004C000134BC9180FE0134BC9180B7848788A780002120410431843CB781B0606E0002000F0AEFC00210B7848780002184308BDC07F0000C17F0000C57F0000C97F0000EF
:40050000D07F0000D17F0000D67F0000D27F0000D47F0000D87F00000C4B10B51A6810231A400B4B00D11A601A68802A0DD100240220211C1C60FFF7A3FFA04205D0211C6B
:400540000220FFF79DFFFFF787FF10BD00030B40C0000020F8B5051C291C0320FFF790FF291C041C0420FFF78BFF671CFF013F18291C0320FFF784FF00240130C001261C79
:40058000B84209D203785A1ED2B2FD2A00D801261C19E4B20130F3E70120291CFFF770FF6442E4B20623844203D17242564176423340181CF8BD0000F0B5A44CA544FFF756
:4005C0007DFE62B600260096002506AC03AE9621201C4900321CFF23FFF786FE0028F4D13188062900D88AE022780423012A54D1E778A2783F021743E2195679B44616796F
:400600000196FE1D8E427FD89279172A45D1FB189BB2002B08D09CA98D4ECA1892191278013B801880B2F3E7019B614640420A0280B21A43082382422FD167E0342B00D040
:400640009DE0009901295AD1032F58D151A80021802200F0D8FC802551A948192639ED19FA1EFF39ADB200F0C5FC832D49D1A079637900021843774B36021B6880191A68BB
:4006800080B2D3099BB2560601D001339BB298427BD20127009700250A2300210120207068466A46437681766B4600200E32D8760B1D11809BB29CAFFE18654F013BF61954
:4006C00036789BB2801980B2002BF4D19CAE624F7318DE194042614F80B23070DE19000A30705F4807311B181720187089B2201C9623FFF7EBFD68E7009E012E1BD0042315
:40070000CBE70126009600250323C6E763782679181C31380A2801D90523BEE700F03AFCECFF1400FCFF8EFF3F00FCFF430054008EFF63008B00002FE1D1381CFFF70AFF35
:4007400043424341237173E000980128D7D1012FD5D1002ED3D13F4B1B681B68DA0BD2B2DB09DBB2002A01D080235B0023711B0A6371FF23A3710023E37104218EE7009BA6
:40078000012BBCD1022FBAD966E751A900F048FA002800D07DE701260096051C12E0009F012FACD110E7009E012EA8D19623EE195B009E42A8D851A948193A1C07A900F0C2
:4007C00019FCB5B2002368E7002F98D104AB254A191C41CA41C107AA41CB41C2012600963B1C08215AE70098012888D1032F86D1A37962791B021A43310251180192C901C8
:4008000000208022FFF729FE071C002E0ED10199FF290BD1311C0520FFF732FE311C3F1A0620FFF72DFEFFB23F1AFFB27F4227710023012132E70020FFF78CFE002802D179
:40084000094B80221A6000F0FDFA58E78CFDFFFFA7FDFFFFD4000020ACFDFFFFADFDFFFFAEFDFFFF48100000C000002038B50020FFF770FE0025A84200D00625124C00209C
:400880002368C0211A68C03AFFF7E7FD62681378181AC0B2984203D123681B68002B02D1002000F0CDFA094B19681A1C402901D0002D03D000231360FFF77EFE80221A6083
:4008C00000F0C0FA38BDC046D4000020C000002008B5054B8022196812060A431A600A2000F09AFA08BDC0460000064010B5054C2378002B03D100F0BFF801232370FFF7AD
:40090000E7FF10BD10010020094B0A4A1968136899420BD011684B1C4039481E814149420B400549C85C1360C0B200E000207047B0010020280100206C010020064B074ACB
:400940001B6811688B4202D31068181A02E012684133981A7047C046B0010020280100200C4A0D4B002130B5106811601D68802464022C431C601D68084C2C401C60084BAB
:400980001C68084B1C60084B19700849084B1960106030BDC80F064004030640FFFFFEFF28010020B0010020AD010020ED0F0000C00F0640124910B50A68531C3F3A541E44
:4009C000A241524213400F4A1468A342FBD00C681268944208D10C4A14680F222240082A02D00A4B18600AE0094C02222260094CC0B2E0540B60084B19680A431A6010BD22
:400A000024010020200100200802064040020640800F06402C010020880F064038B5041C4518AC4204D02078FFF7C4FF0134F8E738BD00000B4A0023116810B513600A4B55
:400A400080201C684002204318601C68074820401860074B1868074B186002239943116010BDC046880F064004020640FFFFFEFF20010020240100201D4A1E4B10B51A60F0
:400A80001D4B00241C601D4B01221A601C491D4B07200B601C4908601C490A200C601C490A601C4A13601C4B1C6000F0BFF90A20032100F091F919490A2000F081F9184BAE
:400AC00004221C60174B1C60174B1C60174B1C60174B1A60174B1C60174B1C60174B1C60174B1C70174B1C60174B1C6010BDC0460B00000200000640400006404800064060
:400B0000000306400700008004030640100306404400064000020640040206409D0E0000880E0640C80E0640480F0640080F0640C80F0640880F0640B00100202801002070
:400B4000AD01002024010020200100200E4B8422D2041A601968802252020A431A600B490B4A0A60196819600A4BC32189001960094B00211960094B1C211960084B1A6087
:400B8000084A094B1A60704700010540080105401027000024010540380105402801054014010540881300000C01054008B500F02DF8044B01211A680A431A6000F02AF858
:400BC00008BDC0460000054010B5054C2378002B03D1FFF7BBFF01232370FFF7E7FF10BD18010020024B18680006C00F7047C04604000440000000000230800804D0C046B1
:400C00000138FDD1C046C046C0467047EFF3108072B6704780F310887047C046C046C046F0B50024CBB0069404900794FF2800D9A4E0A14200D1A1E008AD8022281C00F06E
:400C4000D9F9231C211C221C029498002858002802D01218014302930133202BF5D1002A05D1002900D08EE00191039102E0002001900390484F7F2328AE291C80222AA87D
:400C80002897464C736000F0B5F9454A454B266013602168090F0A2903D022680F23134000E000230693069F002F69D1FFF7AEFF3D4A3E4B116807971960069B0590002B56
:400CC00014D13B4A04982892289A01040A43289228AA22603249374A0A602268120F0A2A03D02E4B1A680F2313400693069F002F38D1019A002A35D0391C8022281C00F00F
:400D000082F90298039A08A983005A50224B2AA8289380227F23736000F06CF9214820492660086023681B0F0A2B03D01B4B1F680F231F400697069B002B13D11E4A049871
:400D40002892289A01040A43289215491B4A26600A602268120F0A2A03D0104B1A680F2313400693079B002B04D1104A0E481268026007930598FFF74DFF01E00423069343
:400D800006984BB0F0BD02998B00E85801210390EA5001916EE7C046B6D7000008000040040000400400008008010B401C010020B6D8000005000080B6D900000600008055
:400DC0001F2800D901BE034A80008318186819607047C0464000002038B5041C0D1E032D00D901BE1F2C00D901BEFFF70FFFA308084A9B009B18032214409440196806345C
:400E0000A2409143A5400C1C2C431C60FFF702FF38BDC04600E400E01F23184001238340181C014B1860704700E100E01F23184001238340181C014B1860704780E100E0EC
:400E400001BE7047034B04491A6892B20A431A607047C0460CED00E00400FA0510B5041C8022074B1202944205D91868FFF7C4FE044BE418F4E758686043FFF7BDFE10BD5B
:400E8000DC0000200080FFFF08B5034B1B7A5843FFF7B2FE08BDC046DC000020274B10B51B68002B00D09847254B1B685A071DD5244B1B681A0716D0234B244A1868116868
:400EC0004B1C40394C1EA14149420B40204909688B4203D11F4B20221A70E9E71E49C0B2C8541360E4E71D4B04221A601C4B1B689A0721D51B4B1A680F231340082B18D02B
:400F0000194B1A4A1968136899420DD011684B1C3F39481E814149420B401549C85C1549C0B208601360E5E7134B02211A688A431A60124B02221A6010BDC0461401002099
:400F4000CC0F06400803064040030640B001002028010020AD0100206C010020C00F06408C0F06400802064024010020200100202C01002040020640880F0640800F0640AE
:400F800002B4714649084900095C49008E4402BC7047C04603B47146490840004900095E49008E4403BC704770B50E4B0E4D0024ED1AAD101E1CAC4204D0A300F358984765
:400FC0000134F8E700F044F8084B094D0024ED1AAD101E1CAC4204D0A300F35898470134F8E770BD5C1000005C1000005C1000006410000010B50023934203D0CC5CC4548E
:401000000133F9E710BD031C8218934202D019700133FAE770470000A8100000EE0000000000000001330F4003410F4004430F4002600F40E61062048E04D84018808C40AD
:40104000C608E608020111019311C804111E0101F8B5C046F8BC08BC9E4670474D02000005040000F8B5C046F8BC08BC9E4670472502000088100000D0000020200000004B
:40108000C80000000000000000000000181000001C1000000000E02EC05D00001800000000366E01000000000000000000000000000000000000000000000000000000002C
:4010C00000000000000000000000000000000000000000000000000000000000000000000000000000000000000000000000000000000000000000000000000000000000F0
:401100000010002011110000C5150000C515000080B500AF024B83F3088800F081FAC0460010002080B500AF144B144A12688021C9020A431A60032000F056FB0F4B0F4A6C
:4011400012680F490A401A600E4B0F4A1A600F4B10221A600E4B20221A600E4BA62212061A600D4B802212061A600C4B0C4A1A600C4B00221A60BD4680BDC04600010B40A7
:40118000FFFFFBFF04010B40060000800C0202401C02024008010B400000024040000240010000800C020B4080B582B000AF72B6FB1D00221A7023E0FB1D1A78131C5B0086
:4011C0009B185B003F4A9B183B603B681A78597809020A43997809040A43DB781B061343191C3B681A795B791B0213439BB2081C191C00F09BFAFB1D1A78FB1D01321A701B
:40120000FB1D1B78012BD7D92F4A304B101C191C00F09CFA2E4BEE2212041A602D4B2E4A1A602E4B00221A602D4B992212041A602C4B992212041A602B4BE422D2041A6063
:401240002A4B992212041A60294B992212041A60284A284B1B78DBB202210B43DBB21370254A254B1B78DBB23C218B43DBB214210B43DBB213701F4A1E4B1B78DBB21621F6
:401280000B43DBB213701D4B30221A601C4B1D4A1A601D4B7C221A601C4B1D4A1A601D4B80221A601C4BFF221A601C4BFF221A601B4B1C4A1A60FFF735FF00F087FABD4620
:4012C00002B080BD98330000A4330000B03300000000014004000140003333030C00014000500F4010500F4018500F4020500F4030500F4000700F4001700F4000000440E8
:4013000008000440004002020001044008010440806D1B0018010440000204401802044008030440B66D1B0010B5064C2378002B07D1054B002B02D0044800E000BF0123E4
:40134000237010BD50010020000000003833000008B5084B002B03D00748084900E000BF07480368002B00D108BD064B002BFBD09847F9E700000000383300005401002083
:40138000D00000200000000090B595B000AF01F0F7F862B601F04CF9844B181C01F094F9022000F02FFF022000F014FF3B1D462022211A1C00F0C0FC00F002FC00F03AFFF6
:4013C00001F0D4F801F054F80023FB640023FB640CE0774AFB6CD3181B78D9B23A1DFB6CD3180A1C1A70FB6C0133FB64FB6C452BEFDD704B1B78002B00D1BFE06E4B1B8897
:401400001C1C3A1C6D4B101C191C221C01F094FB694B1B88DB099BB2DBB2181C01F0B4F80020002101F016F9654B181C01F04CF90020002101F00EF93B1C181C01F044F914
:401440005C4B00221A705C4B1B881B0A9BB2D9B23B1D24229954584B1B88D9B23B1D25229954554B5B881B0A9BB2D9B23B1D26229954514B5B88D9B23B1D272299544E4BAC
:401480009B881B0A9BB2D9B23B1D282299544A4B9B88D9B23B1D29229954474BDB881B0A9BB2D9B23B1D2A229954434BDB88D9B23B1D2B229954404B1B891B0A9BB2D9B2ED
:4014C0003B1D2C2299543C4B1B89D9B23B1D2D229954394B5B891B0A9BB2D9B23B1D2E229954354B5B89D9B23B1D2F229954324B9B891B0A9BB2D9B23B1D302299542E4BE2
:401500009B89D9B23B1D312299542B4BDB891B0A9BB2D9B23B1D32229954274BDB89D9B23B1D332299540023FB6424E0224BFA6C5200D35A181CFB6C5B003A1DD35C1B0288
:40154000FA6C52000132391D8A5C9B1898420FDD3B1D22229B5CD9B20122FB6C9A40131CDBB20A1C1343DBB2D9B23B1D22229954FB6C0133FB64FB6C072BD7DD3B1D21228E
:401580009B5C002B07D03B1D2122002199543B1D2222002199543B1D20229B5C002B03D03B1D20220021995423E7C0463C330000503300007C0100206C0100204433000005
:4015C0004833000080B500AFFEE7C04680B584B000AF7860104B1A687B68D3181A1C0F4BD21A80235B009A4209DC0B4B1B68FB60094B1A687B68D218074B1A6007E001F050
:401600005DFA031C0C221A6001235B42FB60FB68181CBD4604B080BDD4000020E001002080B586B000AF224B7B61224B3B61204B7B6135E03B691B68FB603B695B68BB6024
:401640003B699B683B6000237B600CE0FB681A68BB681A60BB680433BB60FB680433FB607B6804337B607A683B689A42EED13B69DB683B6000237B6008E0BB6800221A6016
:40168000BB680433BB607B6804337B607A683B689A42F2D13B6910333B617B69013B7B617B69002BC6D101F00FFAFFF76DFEFEE7010000009834000080B582B000AF002331
:4016C0007B600FE07B68032B04D8134B7A689200D35800E0114B124A796889008B507B6801337B607B682F2BECD9FFF75DFD0D4B00221A600C4B1B68002B02D10A4B0022D2
:401700001A608023DB058022D205126801210A431A60BD4602B080BD00110000C515000000000020C8000020C000002080B582B000AF786039607A683B68101C00211A1C7C
:4017400001F0F1F9BD4602B080BDC04680B586B000AF7860396000233B6100237B612FE07B699B007A68D3181B68BB600F23FB18BA681A70BB68FF229343BB6018E03B6992
:401780005B003A68D3181B781A1CBB68D318191C3B695B003A68D3185B780B703B6901333B610F23FB181A780F23FB18013A1A700F23FB181B78002BE1D17B6901337B615D
:4017C0007B69022BCCD9BD4606B080BD80B500AF034BFF221A60034BFF221A60BD4680BD00031A4040031A4090B585B000AF78607B68022B00D8BBE07B68302B00D9B7E01B
:401800005E4B1B78DBB21A1E7B689A420AD35C4A0F23FB1812781A705A4A0E23FB1812781A703FE0584B1B78DBB21A1E7B689A420AD3564A0F23FB1812781A70544A0E2392
:40184000FB1812781A702DE0524B1B78DBB21A1E7B689A420AD3504A0F23FB1812781A704E4A0E23FB1812781A701BE04C4B1B78DBB21A1E7B689A420AD34A4A0F23FB1861
:4018800012781A70484A0E23FB1812781A7009E0464A0F23FB1812781A70454A0E23FB1812781A707B68DA1E0C23FB1841498A5C1A700B23FC1801F065F8031C23700C23E9
:4018C000FB181B782F2B0DD97B682A2B0AD93A4B19221A60052001F04BF80D23FB1819221A7007E0344B1B68DAB20D23FB183F210A401A700C23FA180D23FB1812781B78BF
:401900009A4208D22C4B7A68033A2A498A5C1A60052001F02DF8294B7A6825498C4662441278D2B21A60264B0F22BA1812781A60244B0E22BA1812781A60052000F014F97A
:401940000C23FA180D23FB1812781B789A4208D9194B7A68033A17498A5C1A60052001F007F80B23FB181B78181C01F00FF802E0002000F0CBF8BD4605B090BDC0F1FF0F38
:40198000C1F1FF0FC2F1FF0FC3F1FF0FC4F1FF0FC5F1FF0FC6F1FF0FC7F1FF0FC8F1FF0FC9F1FF0FCAF1FF0FCBF1FF0FCCF1FF0FCDF1FF0FE43300002CFF0B4028FF0B401A
:4019C0001CFF0B4020FF0B4080B584B000AF021C3960FB1D1A7080239B05FB60FB1D1B781F2B02D9002000F091F8FB1D1B7810339B00FA68D3181B68BB60FB1D1B7810333D
:401A00009B00FA68D3183A681A60BB68181CBD4604B080BD90B587B000AF021CFB1D1A70BB1D0A1C1A70BB1D1B78032B02D9002000F06CF8FB1D1B781F2B02D9002000F01C
:401A400065F8FB1D1B7803221340DB0006337B611323FC1800F096FF031C2370FB1D1B789B08DBB29B00144A944663441B68FB607B6903229A40131CDA43FB681340FB6002
:401A8000BB1D1A787B699A40131CFA681343FB60FB1D1B789B08DBB29B00074A94466344FA681A601323FB181B78181C00F06EFFBD4607B090BDC04600E400E080B582B0F3
:401AC00000AF021CFB1D1A70054BFA1D12781F210A40012191400A1C1A60BD4602B080BD00E100E080B582B000AF021CFB1D1A70054BFA1D12781F210A40012191400A1C4C
:401B00001A60BD4602B080BD80E100E080B582B000AF021CFB1D1A7001BEBD4602B080BD80B582B000AF786009E00C4B1B68181C00F01EFF7B680A4A944663447B607A680A
:401B400080231B029A42F0D8064B1B687A685343181C00F00DFFBD4602B080BDE40000200080FFFFDC00002080B582B000AF021CBB1D1A80BB1D1B88044A12785343181C52
:401B800000F0F6FEBD4602B080BDC046E000002080B500AF00F05AF8BD4680BD80B500AF064B064A1268802109060A431A6000F019F800F01FF8BD4680BDC04600000740D8
:401BC00080B500AF064B1B78002B04D1FFF7E0FF034B01221A70FFF7E1FFBD4680BDC0468001002080B500AF0B20FFF767FFBD4680BDC04680B500AFBD4680BD80B500AFD7
:401C00000E4B1A6880235B00134012D00C4B1A688023DB0113400CD1084B084A126809490A401A60054B054A1268802149000A431A60054B02221A60BD4680BD000007409A
:401C400060000740FFFEFFFF6C00074080B500AF234B00221A60234B234A1A60234B234A12680C210A431A60214B224A1A60224B00221A60214B224A1A60224B1D4A1A6088
:401C8000214B00221A600B20FFF72CFF0B200321FFF7C0FE1D4B0B20191CFFF795FE1C4B00221A601B4B00221A601B4B5222FF321A601A4B00221A60194B00221A60194B8D
:401CC00000221A60184B00221A70184B00221A70174B00221A80174B00221A70BD4680BD000007406000074000080040700007400003074007010080040307401003074057
:401D00001000FE000002074004020740811D0000C80E0740880E0740480F0740080F0740C80F0740880F0740A80100209A0100209C010020A401002080B584B000AFF860F9
:401D4000B9607A607B68002B10D00B20FFF7CAFE084B7A681A60FB689AB2074B1A80BB689AB2064B1A800B20FFF7A8FEBD4604B080BDC046A0010020A601002098010020F3
:401D800080B588B000AFCD4B1B68002B02D0CB4B1B689847CA4B1B88FB61CA4B1B68FB60C94B1B68BB60FA680223FF33134057D0C64BC64A1268520052081A60C44B1B78A8
:401DC000DBB220221340DBB2002B2CD0C04B1B78DBB220229343DAB2BD4B1A70BC4B1B78DBB210221343DAB2B94B1A70B94B1B68102213400FD1B84B1B789AB2B04B1B8877
:401E00009A4210D0B24B1B78DBB208221343DAB2AF4B1A7007E0AE4B1B78DBB202221343DAB2AB4B1A70AD4BAC4A1268AC490A401A60AC4B00221A60A64B00221A60AA4B7D
:401E4000AA4A1A609F4BAA4A1A60AA4B00221A709E4B9E4A1268802109060A431A6099E1BB681022134002D0A34B00221A60BB680A22134000D1C3E0A04B1B6804221340BE
:401E800000D16FE09E4B1B687B609A4B1B78002B1CD0012B5ED19B4B1B88002B13D09A4B01221A60994B1A68FB69D3187A68D2B21A70FB690133FB61924B1B88013B9AB217
:401EC000904B1A804AE0FFF799FE47E0904B1B881A1E7B689A423AD98B4B01221A607B68FB618C4B1B881A1E7B689A4206D9894B1A887B689BB2D31A9AB200E00022814B58
:401F00001A80804B1B88072B03D87A4B01221A7018E07C4B1B88082B0AD1704B6F4A1268A02109020A431A606E4B00221A6009E06A4B6A4A1268802189010A431A60694B62
:401F400008221A60FB69DAB2634B1A7006E0FFF755FE03E00020FFF7D9FDC046624B04221A604DE05D4B1A6880239B01134047D0BB68022213400DD0674B1B680F22134014
:401F80003B61564B554A126855490A401A6001237B6113E05B4B1B88083B9AB2594B1A80584B1B88082B05D8564B1B883B6100237B6103E008233B6101237B610DE0534BF6
:401FC0001A68FB69D2184E4B1B68DBB21370FB690133FB613B69013B3B613B69002BEED17B69002B09D13D4B3C4A1268802109020A431A603B4B00221A603B4B0C221A60B3
:40200000BB680222134000D19DE0FB681022134027D0344B00221A602E4B00221A600223BB612D4B1B781A1EFB699A4203D0BB6908221343BB61BB69FA681340BB61244BEE
:402040001B78DBB21A1CBB691343BB61BB6920229343BB61BB69DAB21D4B1A70254B00221A70FB68402213406AD0194B1B78DBB220221343DAB2164B1A70174B1B78FB6128
:40208000264B1B68102213404ED0214B1A88FB699BB2D31A9AB21B4B1A80214B204A1268802149020A431A601D4B1D4A12681D490A401A60074B10221A6038E08401002060
:4020C0009C010020400F0740000E0740000007409A010020880F0740A401002060000740FF5FFFFFC80F0740C00F0740ED0F0000FF0F0000A8010020880E0740CC0F07408A
:4021000040030740880100206C000740A0010020A601002098010020080307406400074004020740FFFFFEFF1E4B04221A601E4B01221A601D4B1E4A1A601E4B01221A60D4
:402140001A4BFA681A601C4B1B680422134021D01A4B1B88002B11D0194A1A4B1968FB69CB181B78DBB21360FB690133FB61134B1B88013B9AB2114B1A8002E0104BFF22C2
:402180001A60114B1B680F221340082BE0D10F4B10221A60FB699AB20D4B1A80BD4608B080BDC046C80F0740800E0740400F0740FF0F00006C000740000E07408801002070
:4021C00040020740A001002008020740800F07409C01002080B582B000AF021CFB1D1A70064B064A126806491140FA1D1278D2030A431A60BD4602B080BDC046080004409F
:40220000FF7FFCFF80B582B000AF021CFB1D1A70064B064A126806491140FA1D127812030A431A60BD4602B080BDC04608000440FF8FFFFF80B500AF064B1B78002B04D17F
:4022400000F00AF8034B01221A7000F0FDF8BD4680BDC0468A01002080B584B000AF0E200321FFF7D7FB5C4B0E20191CFFF7ACFB5A4BFF221A605A4B1B68002B01DA5949B2
:4022800000E05949594B594A12680A431A60584B584A1A60584B594A1A60594B802212061A60584B584A1A60584B594A1A60594B00221A60584B00221A60584B01221A607F
:4022C000574B02221A60574B1B687B607B68564A13407B607B68012213437B60514B7A681A600023FB6070E0504BFA689200D258DC239B0113407B604D4AFB68D3181B78F6
:402300001A1C7B6813437B60FB689B00494A944663447A681A60454BFA689200D3580122134009D03B4B3B4A1268F96801208840011C89B20A431A603C4BFA689200D35853
:402340000222134009D0344B334A1268F96801208840011C89B20A431A60344BFA689200D25880239B00134003D080235B00BB6002E080235B01BB602C4BFA689200D25883
:4023800080235B00134005D12B4BFA6852000021D15204E0284BFA6852000021D152BB68264A53438022D20094466344002B02DA234A94466344DB129BB219B2214BFA6853
:4023C0009200D150FB680133FB60FB68072B8BD9BD4604B080BDC046D124000020001A4080031A40C02E1013C02E001300001A4004001A40F800008018001A400000FF073F
:402400001C001A4010001A400400020014001A400200020028021A4038021A4018021A40000F1A4030001A40FFFFFFDF143400003434000080001A40CC010020102700003B
:40244000FF070000AC01002080B500AF074B1B68002B09DB054B054A1268802109060A431A600A20FFF780FBBD4680BD00001A4080B500AF044B044A1268802149020A43C8
:402480001A60BD4680BDC04604001A4080B584B000AF78607B68072B02D90020FFF736FB7B68072B09D87B689B00084A944663441B681B041B0CFB6001E00023FB60FB68AA
:4024C0009BB21BB2181CBD4604B080BD80011A4080B582B000AF224B1B687B600020FFF7D5FF031C9AB21F4B1A800120FFF7CEFF031C9AB21B4B5A800220FFF7C7FF031CF9
:402500009AB2184B9A800320FFF7C0FF031C9AB2144BDA800420FFF7B9FF031C9AB2114B1A810520FFF7B2FF031C9AB20D4B5A810620FFF7ABFF031C9AB20A4B9A81072070
:40254000FFF7A4FF031C9AB2064BDA81064B01221A70034B7A681A60BD4602B080BDC04610021A406C0100207C01002080B500AF024B8022D2011A60BD4680BD00E100E054
:4025800080B500AFBD4680BD80B582B000AF021CFB1D1A70034AFB1D1B781370BD4602B080BDC04672000F4080B500AF2820FFF7B7FA032000F0B0F90520FFF7B1FA032075
:4025C00000F0AAF90F20FFF7ABFA032000F0A4F90120FFF7A5FA022000F09EF90520FFF79FFA062000F0C0F80E2000F0BDF82C2000F0BAF8082000F0B7F8012000F0B4F8A8
:402600000C2000F0B1F8032000F0AEF80520FFF787FABD4680BDC04680B500AF0C2000F0A3F8024B01221A70BD4680BD8B01002080B500AF064B1B78002B04D1FFF7B4FF48
:40264000034B01221A70FFF7E7FFBD4680BDC0468C01002080B582B000AF021CFB1D1A70BB1D0A1C1A70FB1D1B78012B10D002DC002B05D024E0022B12D0032B18D01FE075
:40268000BB1D1B78803BDBB2181C00F06DF817E0BB1D1B78403BDBB2181C00F065F80FE0BB1D1B786C3BDBB2181C00F05DF807E0BB1D1B782C3BDBB2181C00F055F8C0462F
:4026C000BD4602B080BDC04680B584B000AF78600F23FB1801221A700E23FB187A6812781A7015E00E23FB181B78181C00F018F80F23FB181B787A68D2180E23FB18127854
:402700001A700F23FB181A780F23FB1801321A700E23FB181B78002BE4D1BD4604B080BD80B584B000AF021CFB1D1A7000F040F80F23FB18FA1D127812091A700F23FB18BB
:402740001B78181C00F0B4F80F23FB18FA1D12780F210A401A700F23FB181B78181C00F0A7F8BD4604B080BD80B584B000AF021CFB1D1A7000F01CF80F23FB18FA1D1278BB
:4027800012091A700F23FB181B78181C00F0C4F80F23FB18FA1D12780F210A401A700F23FB181B78181C00F0B7F8BD4604B080BD80B582B000AFCA235B007B60374B374AF7
:4027C00012687F218A431A60354B1B681B0B1B033B60334B3A6833490A431A602F4B2F4A126820218A431A602C4B2C4A126840210A431A600020FFF7B7F9284B274A12688B
:4028000010210A431A600120FFF7AEF9264B1B683B60224B214A126810218A431A600020FFF7A2F93B68082213403B601B4B1B4A126810210A431A600120FFF795F9174BD9
:40284000164A126810218A431A603B68002B02D10A20FFF789F97B68013B7B603B68002B02D07B68002BC5D10C4B0C4A126840218A431A60094B094A12687F218A431A60AE
:40288000074B1B681B0B1B033B60054B3A6807490A431A60BD4602B080BDC04600030440080304404902000004030440B60D000080B582B000AF021CFB1D1A70154B154ADF
:4028C000126820210A431A60124B124A126840218A431A600020FFF747F90E4B0D4A12680F218A431A600B4B0A4A1268F91D097810200143C9B20A431A600120FFF734F9CF
:40290000044B044A126810218A431A60BD4602B080BDC0460003044080B582B000AF021CFB1D1A70104B104A126860218A431A600D4B0D4A12680F218A431A600A4B0A4AB3
:402940001268F91D097810200143C9B20A431A600120FFF709F9044B034A126810218A431A60BD4602B080BD00030440000000000230800804D0C0460138FDD1C046C04609
:40298000C0467047EFF3108072B6704780F310887047C046C046C046002243088B4274D303098B425FD3030A8B4244D3030B8B4228D3030C8B420DD3FF22090212BA030C1F
:4029C0008B4202D31212090265D0030B8B4219D300E0090AC30B8B4201D3CB03C01A5241830B8B4201D38B03C01A5241430B8B4201D34B03C01A5241030B8B4201D30B03DC
:402A0000C01A5241C30A8B4201D3CB02C01A5241830A8B4201D38B02C01A5241430A8B4201D34B02C01A5241030A8B4201D30B02C01A5241CDD2C3098B4201D3CB01C01AD7
:402A4000524183098B4201D38B01C01A524143098B4201D34B01C01A524103098B4201D30B01C01A5241C3088B4201D3CB00C01A524183088B4201D38B00C01A52414308BE
:402A80008B4201D34B00C01A5241411A00D20146524110467047FFE701B5002000F00CF802BDC0460029F7D003B5FFF775FF0EBC4243891A1847C0467047C046014B186842
:402AC0007047C046480100200E4B70B500251E1C0D4CE41AA410A54204D0AB00F35898470135F8E700F0C6FC084B00251E1C084CE41AA410A54204D0AB00F35898470135F3
:402B0000F8E770BD80340000803400008034000088340000002310B5934203D0CC5CC4540133F9E710BD031C8218934202D019700133FAE7704700000EB410B59DB002A9CC
:402B4000029008610B48822488604861012040421FABC881084804CBA400006801938C8100F06CF80023029A13701DB010BC08BC03B01847FFFFFF7F48010020F0B58E68C9
:402B800085B0071C0C1C03920193B34245D390238A89DB001A423DD003250969236801985B1A029363695D43EB0F5D19029B6D1001331B189D4200D21D1C381C53050FD5B6
:402BC000291C00F01DFB061E13D0029A2169FFF7A1FFA289184B134080221343A38111E02A1C00F065FB061E0CD1381C216900F0C1FA0C23402201203B60A3894042134366
:402C0000A38117E0029B2661F61826606561019EED1AA560019BB34200D2019E321C2068039900F092FA0020A3689B1BA36023689E19266005B0F0BD7FFBFFFFF0B59FB0E6
:402C4000029005938B890E1C171C1B0610D50B69002B0DD1402100F0D3FA30603061002804D10C23029A01381360D0E040237361002306AD6B6120336B761033AB763C1C0A
:402C80002378002B03D1E31B049312D003E0252BF9D00134F4E7049B0298311C3A1CFFF76DFF431C00D1ACE06A69049B944663446B612378002B00D1A3E00122002352424A
:402CC0006A6002A95432521801342B60EB60AB601370AB654F4F2178381C052200F02AFA002808D0C01B01278740381C2B68013418432860EEE72B68DA0604D55322202160
:402D000002A8121811701A0704D553222B2102A81218117022782A2A01D0099B0EE0059A111D12680591002A01DB099204E05242EA60022213432B60013409E02278303A76
:402D4000092A04D80A214B4301349B18F6E7099323782E2B18D163782A2B09D1059B02341A1D1B680592002B0DDA01235B420AE0002301342278303A092A04D80A214B433B
:402D800001349B18F6E70793234F2178381C032200F0D0F9002807D0C01B40278740381C2B6801341843286021781C480622671C297600F0BFF9002812D0194B002B06D111
:402DC0000722059B073393430833059314E005AB00930298291C321C124B00E000BF07E005AB00930298291C321C0E4B00F08AF80390039B013304D06B69039A9B186B617C
:402E00003DE7B3890B985B0601D5012040421FB0F0BDC0463E3400004434000048340000000000007D2B0000F7B5171C01930A698B6800900C1C934200DA131C221C3B60DD
:402E400043321278002A01D001333B6023689B0602D53B6802333B60062523681D401ED0231C43331B785A1E9341226892061CD53020E1184031C870211C5A1C45310978CF
:402E8000A21840320233D1700FE0221C0123009801991932089EB047431C0ED00135E3683A689B1A9D42F0DBDAE7221C009801994332089DA847431C02D10120404220E037
:402EC00006232068E1683A6803400025042B03D18D1AEB43DB171D40A3682269934201DD9B1AED180027AF420ADA221C0123009801991A32089EB047431CDED00137F2E70D
:402F00000020FEBDF0B58BB006920A1C43320793059004920A7E0C1C109B6E2A00D1A8E011D8632A22D009D8002A00D1B2E0582A00D0C2E045310A707C4A4FE0642A1DD068
:402F4000692A1BD0B9E0732A00D1A7E009D86F2A29D0702A00D0B0E0202209680A43226037E0752A1FD0782A33D0A6E00E1C1A684236111D196013683370A1E021681A6811
:402F8000080606D4490604D5111D19600023D55E02E0111D19601568002D3BDA2D23049A6D42137036E021681A68080606D4490604D51568111D1960ADB202E0111D19605F
:402FC00015685A4B227E03930A276F2A1DD108271BE0221C782145321170554A19680392081D226818600D68100602D4500600D5ADB2D30702D520231A4322601027002DCA
:4030000003D1202322689A432260231C002243331A7002E00A27454B03936368A360002B03DB0422216891432160002D02D1049E002B0ED0049E281C391CFFF733FD039B71
:40304000013E5B5C281C3370391CFFF7A5FC051EF1D1082F09D12368DB0706D563682269934202DC3023013E3370049B9B1B23612BE009681A68080607D4490605D5111DF4
:4030800019601368A28A1A8004E0111D1960136862691A600023049E236116E01A68111D196016680021301C626800F043F8002801D0801B6060636803E0261C4236327065
:4030C000012323610023049A1370079B05980093211C069B09AAFFF7A7FE431C02D10120404221E0236905980699321C079DA847431CF4D023689B0705D4099BE068984278
:4031000012DA181C10E00025E368099A9B1A9D42F3DA221C0123059806991932079EB047431CDCD00135EFE70BB0F0BD4F34000060340000C9B28218904204D003788B42ED
:4031400002D00130F8E70020704710B5814208D28B18984205D29B1A013A09D3995C8154FAE70023934203D0CC5CC4540133F9E710BD000030B500293ED004390B68002B86
:4031800000DAC9181D4A1368141C002B02D14B60116031E099420DD208680A189A4203D11368C3180B6053684B60216024E08A4203D8131C5A68002AF9D11D685C198C421B
:4031C0000BD10968691858181960904214D110685268091819605A600EE08C4202D90C23036009E008680C18944203D114685268001908604A60596030BDC04694010020C9
:40320000032370B5CC1C9C430834051C0C2C01D20C2405E0002C03DA0C2300202B6042E08C42F9D3204A1368101C191C002913D00A68121B0DD40B2A02D90A608B181FE072
:403240008B4202D15A6802601BE04A685A600B1C17E00B1C4968E9E7144E3368002B03D1281C00F04BF83060281C211C00F046F8031C421CD0D00322C61C964386420AD10B
:403280001C60181C07210B301A1D8843821A0AD05142995007E0311A281C00F02FF8431CBAD0331CECE770BD9401002090010020F8B5061C0C1C151C002904D1111CFFF793
:4032C0009FFF041C18E0002A03D1FFF753FF2C1C12E000F025F8A8420ED2301C291CFFF78FFF071E07D0211C2A1CFFF713FC301C211CFFF73FFF3C1C201CF8BD38B5002312
:40330000064C051C081C2360FEF760F9431C03D12368002B00D02B6038BDC046DC0100200B1F1A68101F002A04DA891804390B68D01804387047000000000000544553549A
:4033400000000000256900002020202000000000080008000800080008000800080008000800080008000800080008000000000000000000000000000000000000000000CF
:4033800000000000000000000000000000000000000000000000000000300F40000400400F40000402320F4009330F400E410F405B045F016C206F8A7540838085408C20DE
:4033C0008F0AE210E65050045980630266046702830187018C048D808E04D4A0D6C0D880E6300000030405060708090A0B0C0E0F101112131415161718191B1C1D1E1F200E
:4034000021222325262728292A2B2E2F3031323334350000000400000004000000040000000400000004000000040000000400000004000000010203040506074300232DB3
:40344000302B2000686C4C006566674546470030313233343536373839414243444546003031323334353637383961626364656600000000F8B5C046F8BC08BC9E467047E3
:4034800051130000B9160000F8B5C046F8BC08BC9E46704729130000A8340000D0000020800000009000000000000000E0010020C0C62D00B80B0000030000000000DC05A0
:4034C00000000000000000000000000000000000000000000000000000000000000000003C340000000000000000000000000000000000000000000000000000000000005C
:403500000000000000000000000000000000000000000000000000000000000000000000E80000200000000000000000000000000000000000000000000000000000000083
:40354000000000000000000000000000000000000000000000000000000000000000000000000000000000000000000000000000000000000000000000000000000000004B
:40358000000000000000000000000000000000000000000000000000000000000000000000000000000000000000000000000000000000000000000000000000000000000B
:4035C00000000000000000000000000000000000000000000000000000000000000000000000000000000000000000000000000000000000000000000000000000000000CB
:40360000000000000000000000000000000000000000000000000000000000000000000000000000000000000000000000000000000000000000000000000000000000008A
:407FC000F1111100002100000080240000000000000001000000010000000000000000000000000000000000000000000000000000000000000000000000000000000000A7
:0200000490303A
:0200000028795D
:0200000490402A
:20000000FFFFFFFF00000000000000000000000000000000000000000000000000000000E4
:0200000490501A
:0C000000000204C81193110004D93A0C4E
:0200000490600A
:0100000001FE
:00000001FF